:020000040800F2
:10000000980A002049020008510200085302000823
:1000100055020008570200085902000800000000BD
:100020000000000000000000000000005B0200086B
:100030005D020008000000005F0200086102000885
:1000400063020008630200086302000863020008FC
:1000500063020008630200086302000863020008EC
:1000600079050008630200086302000863020008C3
:1000700063020008630200086302000863020008CC
:100080006302000863020008630200080000000029
:1000900000000000000000000000000063020008F3
:1000A000630200086302000863020008630200089C
:1000B000630200085510000863020008630200088C
:1000C000630200086302000863020008630200087C
:1000D00063020008630200086302000800000000D9
:1000E00063020008630200086302000800000000C9
:1000F0000000000000000000000000006302000893
:1001000000000000630200086302000863020008A8
:1001100000000000000000000000000000000000DF
:10012000630200086302000863020008630200081B
:100130006302000800000000000000000000000052
:100140000000000000000000000000006302000842
:1001500063020008630200086302000863020008EB
:1001600063020008630200080000000000000000B5
:10017000000000000000000000000000000000007F
:100180000000000063020008000000000000000002
:100190006302000800F002F800F047F80AA090E8B7
:1001A000000C82448344AAF10107DA4501D100F032
:1001B0003CF8AFF2090EBAE80F0013F0010F18BFB8
:1001C000FB1A43F001031847BC130000DC130000C6
:1001D000103A24BF78C878C1FAD8520724BF30C873
:1001E00030C144BF04680C60704700000023002445
:1001F00000250026103A28BF78C1FBD8520728BF37
:1002000030C148BF0B607047642900F0AF8063299C
:1002100000F06B81732900F07081002070471FB5DA
:1002200001F0AAF91FBD10B510BD00F06AF9114622
:10023000FFF7F5FF01F022F900F088F903B4FFF7AA
:10024000F2FF03BC00F090F90948804709480047D5
:10025000FEE7FEE7FEE7FEE7FEE7FEE7FEE7FEE776
:10026000FEE7FEE704480549054A064B70470000D3
:10027000391000089501000898040020980A002011
:1002800098060020980600200FB41CB5074B06AA5C
:100290007B4469460090059800F005F90020694606
:1002A00000F014F91CBC5DF814FB000039020000DA
:1002B0002DE9F0410E460446002020622046E16808
:1002C000884730B3252805D0D4E901219047206A1A
:1002D000401CF2E7E168204600278847050018D057
:1002E000A5F14100192802D820354FF400673246A5
:1002F000294620462760FFF787FF40B1012804D038
:10030000F61D26F007060836D8E7361DD6E728463C
:10031000DAE7206ABDE8F08170B50C460546012A8F
:1003200005D02878800600D5EA69002302E0012381
:1003300005E05B1C934202D2E05C0028F9D1A86979
:10034000E618C01AA861286A184428622846AFF344
:10035000008004E0D5E9012114F8010B9047B44274
:10036000F8D32846AFF3008070BD00002DE9F041BE
:100370000646002410687529314616A510D0AFF343
:100380000080002802DA404213A507E031688A079E
:1003900001D512A502E0490704D511A5012401E009
:1003A000AFF3008000210A2206F1240709E0B0FB28
:1003B000F2FCB0FBF2F302FB1C003030785418461C
:1003C000491C0028F3D123462A463046BDE8F041B7
:1003D00000F00BB8000000002D0000002B00000012
:1003E000200000007047704770472DE9F0470D4628
:1003F00099469246044600F124080168880604D50F
:10040000E06921F01001216000E00120A84201DD37
:10041000471B00E00027A1697A1902EB0900081ABE
:10042000A0612078C00602D42046AFF300800026E9
:1004300008E0D4E901211AF806009047206A401C20
:10044000761C20624E45F4DB2078C0060AD5204693
:10045000AFF3008006E0D4E9012130209047206A04
:10046000401C2062381EA7F10107F4DC07E0D4E944
:10047000012118F805009047206A401C2062281EC0
:10048000A5F10105F3DC2046AFF3008020780006DB
:1004900002D50220BDE8F0870120FBE701694A1C74
:1004A00002610878704700B58FB0CDE901310021B5
:1004B000059105497944CDE9031011466846FFF7D7
:1004C000F7FE0FB000BD0000E5FFFFFF0A6802F86D
:1004D000010B0A60704710B5436913B1AFF3008098
:1004E00001E0FFF719FF012010BD127800F124018F
:1004F0000A7000224A700122EDE711684FF0FF32C6
:10050000E9E7754600F02CF8AE460500694653460B
:1005100020F00700854618B020B5FFF7A3FEBDE820
:1005200020404FF000064FF000074FF000084FF05A
:10053000000B21F00701AC46ACE8C009ACE8C009EB
:10054000ACE8C009ACE8C0098D46704710B5044658
:10055000AFF300802046BDE81040FFF76FBE0000FB
:10056000004870473404002001491820ABBEFEE764
:10057000260002007047000010B5042000F032F899
:1005800001281FD1042000F027F804210E4800F0B4
:1005900012F9B8B902210D4800F018F9C82000F08E
:1005A00009FF00BFBFF34F8F0948006800F4E06007
:1005B00008490843001D06490860BFF34F8F00BF7C
:1005C00000BFFEE710BD0000000402400010024022
:1005D0000CED00E00000FA050149086070470000DA
:1005E000143C0140014600200022074B1B6803EA2F
:1005F0000102054B14331B680B4013B10AB10120F3
:1006000000E0002070470000003C01400021234929
:100610008279002A3AD00A46126803689A430B4648
:100620001A600A1D126803689A430B1D1A6002794A
:1006300011440A6803681A430A60184A08321268AB
:1006400003689A43154B08331A601A1D1268036831
:100650009A43124B0C331A604279102A0ED11A1F9A
:10066000126803681A430D4B08331A601A1D12688A
:1006700003681A43094B0C331A600DE007494279AD
:1006800011440A6803681A430A6005E002791144BC
:100690000A6803689A430A6070470000003C014002
:1006A0001CB500F0D1FE00F08FFE0121102000F0FB
:1006B000FFFB44F23000009001208DF80400002080
:1006C0008DF8060002208DF8050000208DF8070047
:1006D0006946024800F004F81CBD0000001002400A
:1006E000F0B50A4600210023002400BF3DE00125AB
:1006F00005FA01F3156805EA03049C4234D1056844
:100700004F000326BE40B543056015794E00B54045
:100710000668354305601579012D02D01579022D43
:1007200016D185684F000326BE40B54385605579D4
:100730004E00B540866835438560456801268E4089
:10074000B5434560456896798E40B6B235434560FD
:10075000C5684F000326BE40B543C560D5794E003D
:10076000B540C6683543C560491C1029BFD3F0BDEC
:10077000F0B5002300244D07ED0E02FA05F3CE106C
:1007800000F1200555F826504E07F70E0F26BE4003
:10079000B543CF1000F1200646F82750CE1000F1E7
:1007A000200555F8265045EA0304CE1000F1200537
:1007B00045F82640F0BD0246002013690B400BB1FE
:1007C000012000E00020704741837047018370479B
:1007D0004FF6FF7101600021017141718171C1719A
:1007E000704742694A4042617047000010B541F2CB
:1007F000883000F0F5FC09A000F0AAF900BF0B4812
:100800000078022803D00A4800780028F7D000F0CA
:1008100027FD00200549087010BD000041542B51F0
:10082000494143543D310D0A000000001C000020E6
:100830000000002010B588B004460121084600F0F1
:1008400037FB0121102000F033FB0121042000F0D0
:100850002FFB0121C80400F03BFB34208DF804007D
:1008600000208DF8050001208DF806008DF80700A6
:1008700001A800F0E1FA0320069001208DF81C0089
:1008800000208DF81E0002208DF81D0000208DF83C
:100890001F0006A92648FFF723FF08200690002026
:1008A0008DF81C008DF81E0002208DF81D00002020
:1008B0008DF81F0006A91E48FFF712FF082200212D
:1008C0001C48FFF755FF082201211A48FFF750FF87
:1008D00002208DF81C0003208DF81D0000208DF8EB
:1008E0001E0001208DF81F000320069006A9114864
:1008F000FFF7F6FE02940020ADF80C00ADF80E00F4
:10090000ADF81000ADF814000C20ADF8120002A9EB
:10091000094800F0E3FC0121074800F0A9FC01228E
:1009200040F22551044800F0B8FC08B010BD0000AA
:100930000010024000000240004C004000B58DB0A5
:1009400000202049087000BF1FA321A225A16846EE
:10095000FFF79AFC4FF4967000F042FC684600F0F6
:10096000F7F800BF25480078022803D02448007813
:100970000028F7D000F074FC41F2883000F030FC21
:1009800000BF1F4800780028FBD01E4890F82800C0
:10099000012808D00B4801780078401C094A1070E3
:1009A0000A2900DAD0E7074800780A2802DB00208D
:1009B0000449087000F054FC0020104908700DB084
:1009C00000BD000002000020313738313600000041
:1009D0006D31362E636C6F75646D7174742E636F38
:1009E0006D00000041542B514D544F50454E3D3148
:1009F0002C222573222C25730D0A00001C000020D8
:100A0000000000200804002010B501210748FFF76E
:100A1000DDFE642000F0CEFC01210448FFF7D4FE87
:100A200041F2883000F0C6FC10BD0000001002400A
:100A300010B501210748FFF7C9FE40F28A2000F0F7
:100A4000B9FC01210348FFF7BFFE4FF4FA6000F044
:100A5000B1FC10BD0010024010B54FF4FA7000F068
:100A6000BFFB09A000F074F800BF0A480078022814
:100A700003D0094800780028F7D000F0F1FB0020EF
:100A80000449087010BD000041542B47534E0D0A15
:100A9000000000001C0000200000002010B54FF4F2
:100AA000967000F09DFB09A000F052F800BF0A48C4
:100AB0000078022803D0094800780028F7D000F019
:100AC000CFFB00200449087010BD000041542B43A7
:100AD00053510D0A000000001C00002000000020FF
:100AE00010B54FF4967000F07BFB09A000F030F8D1
:100AF00000BF0A480078022803D00948007800287F
:100B0000F7D000F0ADFB00200449087010BD0000D4
:100B100041542B435245473F0D0A00001C00002062
:100B20000000002010B5FFF783FF4FF4E130FFF71E
:100B300081FEFFF769FF4FF4165000F053F94FF4B0
:100B40007A7000F037FC4FF41650FFF773FE10BDBB
:100B500010B5044600BF40210A4800F095FB00286C
:100B6000F9D00BE014F8011B064800F01FFC00BF91
:100B70004021044800F088FB0028F9D020780028A4
:100B8000F0D110BD004C004000B58FB016A01AA3E4
:100B90001CA21EA1009002A8FFF776FB4FF49670EE
:100BA00000F01EFB02A8FFF7D3FF00BF1F4800782C
:100BB000022803D01E4800780028F7D000F050FB30
:100BC00041F2883000F00CFB00BF1A4890F8290071
:100BD00018B1174800780028F7D000F041FB00203A
:100BE000124908700FB000BD68577032796536350C
:100BF0005357424B00000000626D7961746569775C
:100C000000000000414243444546000041542B513E
:100C10004D54434F4E4E3D312C222573222C22251C
:100C200073222C222573220D0A0000001C000020D4
:100C3000000000200804002030B58DB004460D46A9
:100C4000224621A16846FFF71FFB4FF4967000F083
:100C5000C7FA6846FFF77CFF00BF224800780C28DF
:100C600003D0214800780028F7D000201D490870E3
:100C70001A232A461DA16846FFF706FB4FF496701B
:100C800000F0AEFA6846FFF763FF00BF1548007832
:100C9000022803D0144800780028F7D041F28830A9
:100CA00000F09EFA00BF134890F82900062803D0F0
:100CB0000D4800780028F6D000F0D2FA002009494B
:100CC00008700DB030BD000041542B514D545055AB
:100CD000423D312C302C302C302C222573220D0A31
:100CE000000000001C000020000000202573256388
:100CF000000000000804002010B58EB00446224613
:100D000014A101A8FFF7C0FA4FF4967000F068FA3A
:100D100001A8FFF71DFF00BF14480078022803D088
:100D2000134800780028F7D041F2883000F058FAD4
:100D300000BF104890F82900082803D00C4800781C
:100D40000028F6D000F08CFA0020084908700EB098
:100D500010BD000041542B514D545355423D312C90
:100D6000312C222573222C300D0A00001C0000209B
:100D7000000000200804002010B58EB004460DA12C
:100D800001A8FFF781FA4FF4967000F029FA01A844
:100D9000FFF7DEFE00BF11480078022803D010489C
:100DA00000780028F7D000F05BFA00200B490870AB
:100DB0000EB010BD41542B5149435347503D312C87
:100DC000312C227A6F6E67696E7465726E6574225B
:100DD0002C22222C22222C300D0A00001C00002084
:100DE0000000002010B58EB0044622460DA101A8D7
:100DF000FFF74AFA4FF4FA6000F0F2F901A8FFF7A2
:100E0000A7FE00BF0A480078022803D009480078EE
:100E10000028F7D000F024FA0020054908700EB031
:100E200010BD000041542B4950523D25640D0A006D
:100E30001C0000200000002070B5002100230F22BC
:100E4000C4781CB3174C246804F4E064C4F5E0646F
:100E5000C4F30721C1F10404E3B20A4144789C4081
:100E6000E1B28478144021430C07210E0E4C057822
:100E70006155047804F01F050124AC4005786D111C
:100E8000AD0005F1E025C5F8004109E0047804F063
:100E90001F050124AC40054D0678761145F8264023
:100EA00070BD00000CED00E000E400E080E100E037
:100EB00029B1064A12680243044B1A6004E0034A4F
:100EC00012688243014B1A607047000030380240BC
:100ED00029B1064A12680243044B1A6004E0034A2F
:100EE00012688243014B1A6070470000403802408C
:100EF00029B1064A12680243044B1A6004E0034A0F
:100F000012688243014B1A60704700004438024067
:100F1000F0B5002100220024022500260223324FD2
:100F20003F6807F00C0121B1042905D0082937D109
:100F300005E02E4F076036E02D4F076033E02A4F63
:100F40003F1F3F68C7F38056274F3F1F3F6807F09A
:100F50003F036EB1264FB7FBF3F7DFF88CC0ACF15F
:100F6000040CDCF800C0CCF3881C07FB0CF40CE08C
:100F70001E4FB7FBF3F7DFF870C0ACF1040CDCF8E0
:100F800000C0CCF3881C07FB0CF4174F3F1F3F68D1
:100F9000C7F301477F1C7D00B4FBF5F7076002E053
:100FA000124F076000BF00BF0F4F3F6807F0F0010E
:100FB0000909104F7A5C0768D74047600A4F3F68BD
:100FC00007F4E051890A0B4F7A5C4768D740876085
:100FD000054F3F6807F46041490B064F7A5C47684C
:100FE000D740C760F0BD0000083802400024F4007C
:100FF00040787D010400002030B500228B071C0FD3
:101000000F2303FA04F20B4B8C1053F82430934354
:10101000084C8D1044F8253023468C1053F82430AA
:101020008C07240F00FA04F42343024C8D1044F87B
:10103000253030BD083801400548006840F4700094
:10104000034908604FF0006001498039086070472B
:1010500088ED00E010B501210D4800F033F8B0B183
:1010600001210B4800F01FF801200A4908700021F7
:10107000074800F01BF80848007840B14FF40051D1
:101080000648FFF7AEFB41F2883000F0A9F810BD2A
:10109000000400400000002003000020000C02407B
:1010A000CA4302827047CA430282704721B1028854
:1010B00042F00102028004E002884FF6FE731A40FB
:1010C0000280704730B50246002000230024158AB4
:1010D00005EA0103958905EA010413B10CB1012069
:1010E00000E0002030BD1AB183890B43838102E008
:1010F00083898B438381704700220288184B984272
:101100000ED0184B98420BD0B0F1804F08D0164B40
:10111000984205D0154B984202D0154B984204D105
:101120004FF68F731A404B881A43124B984207D0E0
:10113000114B984204D04FF6FF431A400B891A43D3
:1011400002804B68C3620B880385054B984202D02E
:10115000044B984201D18B7A038601238382704726
:10116000000001400004014000040040000800406D
:10117000000C004000100040001400401FB5012189
:101180000220FFF7A5FE4FF47A7002900001ADF83F
:1011900004000020ADF80C00ADF8060001A90F48CE
:1011A000FFF7AAFF1D208DF8000000208DF8010038
:1011B00001208DF802008DF803006846FFF73CFE21
:1011C00001210648FFF76CFF012211460348FFF793
:1011D0008AFF01210148FFF763FF1FBD00040040A3
:1011E0001FB5044600211C48FFF760FF00201B4983
:1011F000087001210220FFF76BFE02944FF47A5031
:10120000ADF804000020ADF80C00ADF8060001A90F
:101210001148FFF771FF1D208DF8000000208DF8A8
:10122000010001208DF802008DF803006846FFF7E9
:1012300003FE01210848FFF733FF0122114606484B
:10124000FFF751FF01210448FFF72AFF012102485F
:10125000FFF72CFF1FBD000000040040000000202D
:1012600010B500210148FFF721FF10BD0004004028
:1012700021B1828942F40052828104E082894DF6D4
:10128000FF731A40828170470246002013880B408A
:101290000BB1012000E000207047F0B503460024A8
:1012A0000026002500201846C1F3421401F01F0655
:1012B000012707FA06F5012C01D10C3004E0022CBD
:1012C00001D1103000E014301AB107682F430760D5
:1012D00002E00768AF430760F0BD00002DE9FF475B
:1012E00005460E460024A14600BFA0462C8A24F4E1
:1012F0004054F08804432C82AC8941F20C60844352
:10130000B08831890843718908430443AC81AC8AB1
:1013100024F44074B0890443AC826846FFF7F8FDBA
:101320002048854202D02048854202D1DDF80C9049
:1013300001E0DDF80890A88900F4004040B109EB15
:10134000C90000EB091031684900B0FBF1F707E074
:1013500009EBC90000EB091031688900B0FBF1F717
:101360006420B7FBF0F004012009642101FB107830
:10137000A88900F4004040B1322000EBC800B0FB67
:10138000F1F000F00700044308E0322000EB081001
:101390006421B0FBF1F000F00F0004432C81BDE8A4
:1013A000FF8700000010014000140140C1F3080253
:1013B000828070474FF45261484300E000BF011E35
:1013C000A0F10100FAD1704700B585B001210220DB
:1013D000FFF76EFD01218803FFF78AFD022101203E
:1013E000FFF70AFE0420039000208DF810008DF80E
:1013F000120002208DF8110000208DF8130003A9BF
:101400001048FFF76DF90420009000208DF80400CB
:101410000C208DF8050001208DF806006846FFF7C6
:10142000F5F808208DF8080000208DF8090001204B
:101430008DF80A008DF80B0002A8FFF7FDFC05B03F
:1014400000BD0000000402401CB501210920FFF787
:101450002FFD6846FFF7BCF901208DF804004FF41A
:101460006040009069460448FFF73AF94FF4604144
:101470000148FFF7ABF91CBD000C0240FFF710F963
:101480004FF4E130FFF7D6F9FFF778FE4FF48041D3
:101490002D48FFF79BF94FF41650FFF7A3FC4FF4CC
:1014A0007A70FFF787FF4FF41650FFF7C3F900BFBC
:1014B00001E0FFF737FB254800780028F9D000202D
:1014C0002349087005E0FFF70BFB4FF47A70FFF734
:1014D00071FF20480078012807D01D480178007866
:1014E000401C1B4A10700A29EDDB194800780A28B5
:1014F00000DBDDE7002016490870FFF7CFFA0A206D
:10150000FFF758FFFFF7A8FA0A20FFF753FF12A0D2
:10151000FFF732FC0A20FFF74DFFFFF767F94FF4A2
:101520007A70FFF747FFFFF709FAFFF72DFB0EA1CF
:101530000FA0FFF781FB0EA0FFF7DEFB4FF4FA6070
:10154000FFF738FF00BFFEE7001002401E0000203A
:10155000020000201D0000207A6F6E67696E7465BE
:10156000726E65740000000068656C6C6F000000AE
:101570005354582D330000004FF04070E1EE100A34
:1015800070470000A41500080000002020000000A3
:10159000D0010008C415000820000020780A0000CF
:1015A000EC0100080000000000000000010203043C
:1015B000010203040607080900000000E803000018
:0415C0000000000027
:0400000508000249A4
:00000001FF
